:0400000007EF00F016
:0A00080059820BED0AF042EF09F0F7
:100800000020202020202020202020202020202008
:1008100020004761732044657465637461646F00F0
:10082000416C657274613A204761732100496E69B9
:100830006369616E646F2E2E2E0053656E736F7246
:10084000204D512D32004144433A2025303464007C
:090850004172205075726F000026
:10085A00928035EC0AF019EC09F0010E036E010ED4
:10086A00AAEC08F02D0E036E0350D8A4080E046EED
:10087A00E2EC08F09380956A9494949282928C6A3E
:10088A008B94F28EF288F292F18EF18C010E036E45
:10089A00010EAAEC08F03A0E036E0350D8A4080E13
:1008AA00046EE2EC08F0010E036E020EAAEC08F0E8
:1008BA002D0E036E0350D8A4080E046EE2EC08F065
:1008CA00010E586E330E3E6EBB0E3D6EE00EE82EE4
:1008DA00FED73D2EFCD73E2EFAD75850D8B478EF23
:1008EA0004F07AEF04F02EEF05F082A27FEF04F015
:1008FA0083EF04F03D6A3D2A84EF04F03D6A3D46E9
:10090A008B503D18FD0B3D188B6E83AE8FEF04F0B4
:10091A0093EF04F03D6A3D2A94EF04F03D6A3D32BC
:10092A003D328C503D187F0B3D188C6E83ACA0EF86
:10093A0004F0A4EF04F03D6A3D2AA5EF04F03D6AF5
:10094A003D3A3D463D468C503D18BF0B3D188C6ED6
:10095A0083AAB2EF04F0B6EF04F03D6A3D2AB7EF7E
:10096A0004F03D6A3D3A3D468C503D18DF0B3D1878
:10097A008C6E83A8C3EF04F0C7EF04F03D6A3D2AEA
:10098A00C8EF04F03D6A3D3A8C503D18EF0B3D1814
:10099A008C6E83A6D3EF04F0D7EF04F03D6A3D2AAC
:1009AA00D8EF04F03D6A3D463D463D468C503D1821
:1009BA00F70B3D188C6E83A4E5EF04F0E9EF04F021
:1009CA003D6A3D2AEAEF04F03D6A3D463D468C50B9
:1009DA003D18FB0B3D188C6E83A2F6EF04F0FAEF7C
:1009EA0004F03D6A3D2AFBEF04F03D6A3D468C5017
:1009FA003D18FD0B3D188C6E83A006EF05F00AEF3B
:100A0A0005F03D6A3D2A0BEF05F03D6A8C503D1812
:100A1A00FE0B3D188C6E82A415EF05F019EF05F058
:100A2A003D6A3D2A1AEF05F03D6A3D463D468B5028
:100A3A003D18FB0B3D188B6E030E3E6E8A0E3D6E03
:100A4A00560EE82EFED73D2EFCD73E2EFAD738EFAB
:100A5A0005F08292959E959C959A9598959695946F
:100A6A0095929590949421EC0AF001C050F002C03E
:100A7A0051F0010E036E020EAAEC08F0010E036E8D
:100A8A000350D8A4080E046EE2EC08F0010E036EBF
:100A9A00010EAAEC08F03F0E2D6E460E2E6E50C0C7
:100AAA002FF051C030F0C1EC09F03F0E036E046A1A
:100ABA00E2EC08F0010E036E020EAAEC08F0590EE1
:100ACA00505C020E5158D8A06DEF05F06FEF05F09B
:100ADA0079EF05F0200E036E0350D8A4080E046EB9
:100AEA00E2EC08F098EF05F02D0E505C010E51581B
:100AFA00D8A082EF05F084EF05F090EF05F0120E12
:100B0A00036E0350D8A4080E046EE2EC08F0010E3E
:100B1A00586E98EF05F0500E036E0350D8A4080ED5
:100B2A00046EE2EC08F00D0E3E6EAF0E3D6EB60E90
:100B3A00E82EFED73D2EFCD73E2EFAD700D072EF14
:100B4A0004F007EF00F0010E1A6E17BEAFEF05F0C2
:100B5A00B2EF05F0010EB3EF05F0000E1D6E52C0A4
:100B6A001BF053C01CF01D50D8B4BEEF05F0C0EF07
:100B7A0005F0D7EF05F01B06D8A01C061D50D8A417
:100B8A00C9EF05F0CBEF05F0D1EF05F0000E196EB5
:100B9A002B0E186ED5EF05F0000E196E2D0E186E7D
:100BAA0018C01DF0000E1F6E1F0E1E6E00017F6B17
:100BBA000BEF06F01E06D8A01F061E50600FD96E56
:100BCA00DA6A16C001F017C002F0000E046E0A0EAF
:100BDA00036E67EC07F001C007F002C008F0DBEC17
:100BEA0009F00750300FDF6E1A6A1B06D8A01C06E0
:100BFA0016C001F017C002F0000E046E0A0E036E52
:100C0A0006EC07F001C016F002C017F01FBE16EF7F
:100C1A0006F01F5008E11E04D8A016EF06F018EFE0
:100C2A0006F03DEF06F016501710D8A41FEF06F095
:100C3A0021EF06F0DFEF05F01A50D8A427EF06F0EF
:100C4A0029EF06F0DFEF05F01CBE34EF06F01C506A
:100C5A0008E11B04D8A034EF06F036EF06F03DEFAA
:100C6A0006F056B23BEF06F03DEF06F0DFEF05F077
:100C7A001D50D8B443EF06F045EF06F04EEF06F0EC
:100C8A001E06D8A01F061E50600FD96EDA6A1DC054
:100C9A00DFFF15C00EF01E50600F0F6E1BC010F064
:100CAA001CC011F065EC08F012002150D96EDA6A06
:100CBA00DFCFF6FF080EF76E0800F550250AD8A414
:100CCA0069EF06F06BEF06F0F4EF06F02150D96EEB
:100CDA00DA6ADF2A000E536E000E526E52C056F0C8
:100CEA0054685568276A94EF06F056822150D96EE7
:100CFA00DA6ADF2A94EF06F0010E276E94EF06F007
:100D0A002150D96EDA6ADFCFF6FF080EF76E0800B7
:100D1A00F550300AD8B47AEF06F081EF06F0275082
:100D2A00D8B49AEF06F09CEF06F085EF06F021C0E2
:100D3A0001F022C002F013EC08F001C052F002C028
:100D4A0053F053BEADEF06F0ABEF06F0B2EF06F08C
:100D5A005680526C531ED8B0532A2150D96EDA6A83
:100D6A00DF50286E28C0F6FF080EF76E0800F5500F
:100D7A00640AD8B4C3EF06F0C5EF06F0D3EF06F065
:100D8A0028C0F6FF080EF76E0800F550690AD8A4C5
:100D9A00D1EF06F0D3EF06F0EEEF06F02250D96E4F
:100DAA00DA6A020EDF26DF5CD96EDA6ADECF23F05A
:100DBA00DECF24F02150D96EDA6A2828DF6E20C0EF
:100DCA0015F023C016F024C017F0A8EC05F005EFC3
:100DDA0007F02150D96EDA6ADF2A05EF07F02150B1
:100DEA00D96EDA6ADFCFF6FF080EF76E0800F55003
:100DFA00016E026A20C003F0BEEC07F0EEEF06F0C7
:100E0A001200066A04BE0EEF07F00CEF07F014EFAB
:100E1A0007F0036C041ED8B0042A010E066E02BE47
:100E2A001BEF07F019EF07F021EF07F0016C021E24
:100E3A00D8B0022A010E061A000E086E000E076EBE
:100E4A0003500410D8B42CEF07F02EEF07F056EF3A
:100E5A0007F0010E056E36EF07F0D8900336043618
:100E6A00052A04AE3BEF07F03DEF07F032EF07F03B
:100E7A00D890073608360350015C04500258D8A0AF
:100E8A0049EF07F04BEF07F050EF07F00350015E10
:100E9A000450025A0780D89004320332052E3DEFDF
:100EAA0007F00650D8B45CEF07F05EEF07F062EF88
:100EBA0007F0076C081ED8B0082A07C001F008C05E
:100ECA0002F01200066A02BE6FEF07F06DEF07F03C
:100EDA0075EF07F0016C021ED8B0022A010E066EE9
:100EEA0004BE7CEF07F07AEF07F080EF07F0036C9F
:100EFA00041ED8B0042A03500410D8B487EF07F0B0
:100F0A0089EF07F0ADEF07F0010E056E91EF07F0DC
:100F1A00D89003360436052A04AE96EF07F098EF08
:100F2A0007F08DEF07F00350015C04500258D8A077
:100F3A00A1EF07F0A3EF07F0A7EF07F00350015E58
:100F4A000450025AD89004320332052E98EF07F063
:100F5A000650D8B4B3EF07F0B5EF07F0B9EF07F0D2
:100F6A00016C021ED8B0022A01C001F002C002F0D0
:100F7A0012000350D8B4C4EF07F0C6EF07F0CEEF63
:100F8A0007F00350D8A4CCEF07F0CEEF07F0D3EF69
:100F9A0007F0015040EC0AF012EF08F00350D96E46
:100FAA00DA6A090ED926DE50DE10D8B4DFEF07F070
:100FBA00E1EF07F0FAEF07F00350D96EDA6A090E8B
:100FCA00D9260350E16EE26A020EE126DE50E65CA3
:100FDA00E650800A086EDE50800A0858D8B0F8EF4A
:100FEA0007F0FAEF07F012EF08F00350D96EDA6A49
:100FFA00020ED926DF50046E0350D96EDA6ADF502A
:10100A000424D96EDA6A01C0DFFF0350D96EDA6AA6
:10101A00020ED926DE2A000EDD221200000E076E0D
:10102A00000E066E0150D96EDA6ADFCFF6FF080E9F
:10103A00F76E0800F5502A0AD8A426EF08F028EF20
:10104A0008F04DEF08F00150D96EDA6ADF2A025033
:10105A00D96EDA6A020EDF26DF5CD96EDA6ADECF73
:10106A0006F0DECF07F060EF08F00A0E0602F3CFB3
:10107A0003F0F4CF04F00702F350042605500324CA
:10108A00066E000E0420076E0150D96EDA6ADF2A56
:10109A000150D96EDA6ADFCFF6FF080EF76E080044
:1010AA00F550D00F056E090E05645EEF08F060EF8B
:1010BA0008F03AEF08F006C001F007C002F012008B
:1010CA0056A06AEF08F06CEF08F072EF08F00FC054
:1010DA0009F00EC00AF0A3EC09F011BE79EF08F08E
:1010EA0077EF08F07DEF08F0000E116E000E106E1B
:1010FA00000E146E000E136E8DEF08F0000E026ED5
:10110A00200E016E0EC003F0BEEC07F0134A142A3B
:10111A001050135C1450800A126E1150800A125833
:10112A00D8A09AEF08F09CEF08F083EF08F056B0C9
:10113A00A1EF08F0A3EF08F0A9EF08F00FC009F03B
:10114A000EC00AF0A3EC09F01200046E056A030649
:10115A00C3EF08F00350800F056ED6EF08F0035076
:10116A00C00F056ED6EF08F00350900F056ED6EF4C
:10117A0008F00350D00F056ED6EF08F00450010AAC
:10118A00D8B4AFEF08F0030AD8B4B4EF08F0010AF4
:10119A00D8B4B9EF08F0070AD8B4BEEF08F0D6EF12
:1011AA0008F00550D8B4DCEF08F0DEEF08F0E1EF04
:1011BA0008F00550F5EC09F0120000EF09F003C041
:1011CA00F6FF04C0F7FFF86A070EF76403D00800B9
:1011DA00F55005D0F6CFE1FFF7CFE2FFE75084ECF8
:1011EA0009F0034A042A070E056E7D0EE82EFED783
:1011FA00052EFCD7000003C0F6FF04C0F7FFF86A0B
:10120A00070EF76403D00800F55005D0F6CFE1FFCA
:10121A00F7CFE2FFE7500009D8A416EF09F018EF5C
:10122A0009F0E4EF08F01200046A0F0EC16E836A37
:10123A008450F80B846E956A9650F80B966E35EFCB
:10124A0009F00450800FD96EDA6ADF50F5EC09F024
:10125A00042A040E036E3E0EE82EFED7032EFCD798
:10126A000450800FD96EDA6ADF50D8A43FEF09F034
:10127A0041EF09F026EF09F01200780EF66E140E0F
:10128A00F76E000EF86E00EE80F010EE07F009001F
:10129A00F5CFEEFFE550E150FAE100EE60F0200EE6
:1012AA00EE6AE806FDE100EE52F0070EEE6AE80685
:1012BA00FDE159905992000EF86E00012DEF04F0ED
:1012CA002AC02CF071EF09F029C020F02C0E216EF3
:1012DA002BC022F05AEC06F02CC0F6FF080EF76E6F
:1012EA000800F5500009D8A47DEF09F07FEF09F056
:1012FA0069EF09F0000E2A6E000E296E1200026EC6
:10130A0084808492040E016E3E0EE82EFED7012ED2
:10131A00FCD702C083FF8482070E016E7D0EE82E81
:10132A00FED7012EFCD700008492070E016E7D0EB7
:10133A00E82EFED7012EFCD700001200000E0D6E1B
:10134A00000E0C6EB2EF09F00BC001F0026A0AC07F
:10135A0003F0BEEC07F00C4A0D2A09500C24D96E92
:10136A00DA6ADF500B6E0B50D8A4BEEF09F0C0EF5B
:10137A0009F0A9EF09F012002F0E316E2DC032F0DC
:10138A00000E356E000E346E000E3C6E000E3B6E83
:10139A00320E296E2EC02AF0310E2B6E65EC09F042
:1013AA002D503424D96EDA6ADF6A120008BEE0EFE3
:1013BA0009F0E2EF09F0E8EF09F007C007F008C00A
:1013CA0008F0F4EF09F007C009F008C00AF0091E96
:1013DA000A1E094A0A2A09C007F00AC008F01200C0
:1013EA00026E849002C083FF8482040E016E3E0E58
:1013FA00E82EFED7012EFCD78492070E016E7D0ED1
:10140A00E82EFED7012EFCD7000012000600F2A239
:10141A0011EF0AF013EF0AF01FEF0AF0F292585098
:10142A00D8B41AEF0AF01DEF0AF0010E1EEF0AF007
:10143A00000E586E59921100C282C2B227EF0AF00A
:10144A0029EF0AF022EF0AF0C350C4CF03F0046A6E
:10145A0003C004F0036A0310016E0450026E120006
:10146A00010EC26E0E0EC16EAE0EC06E120038387C
:05147A00380C06010022
:02148000120058
:020000040030CA
:08000000000C191EFF8181FFB5
:00000001FF
