:04000000FEEF3FF0E0
:10080000003838380C060180C090D048656C6C6F99
:0708100020776F7264000005
:100818000F0EC16E836AF80E8416956AF80E961646
:10082800046A0450010F036E03C0F6FF0800F55078
:100838007DEC04F0070E036E7D0EE82EFED7032E26
:10084800FCD70000042A050E04642DEF04F02FEFF6
:1008580004F015EF04F01200076E0750D8B437EF14
:1008680004F039EF04F051EF04F0050E07603FEF94
:1008780004F041EF04F051EF04F007C004F0FF0E5C
:1008880004260450070F056E05C0F6FF0800F55052
:100898000324066E06047DEC04F012005BEF04F0FE
:1008A80003C0F6FF0800F55068EC04F0032A03C003
:1008B800F6FF0800F5500009D8A465EF04F067EFCB
:1008C80004F054EF04F01200026E848002C083FF2B
:1008D8008482030E016E980EE82EFED7012EFCD7F7
:1008E8008492030E016E980EE82EFED7012EFCD7D7
:1008F8001200026E849002C083FF8482030E016E90
:10090800980EE82EFED7012EFCD78492030E016EB6
:10091800980EE82EFED7012EFCD71200AAEC04F0A0
:100928000CEC04F0020E036E010E30EC04F00B0E1A
:10093800036E52EC04F09FEF04F0FEEF3FF0000E60
:10094800F86E080EF76E000192EF04F0956A966A49
:06095800836A846A1200AC
:047FFC00A3EF04F0FB
:020000040030CA
:08000000000C060EFF8180FFD9
:00000001FF
