:04000000FEEF3FF0E0
:1008000000416E746F6E696F004E756E6573000007
:100810000B6E0C6A0A0621EF04F00A50800F0C6E72
:1008200034EF04F00A50C00F0C6E34EF04F00A509D
:10083000900F0C6E34EF04F00A50D00F0C6E34EFB2
:1008400004F00B50010AD8B40DEF04F0030AD8B439
:1008500012EF04F0010AD8B417EF04F0070AD8B475
:100860001CEF04F034EF04F00C50D8B43AEF04F06D
:100870003CEF04F03FEF04F00C50D5EC04F0120014
:10088000836A846A956AFC0E966E6CEC04F0010E25
:10089000D5EC04F0060E0A6E010E08EC04F0010E11
:1008A0000A6E96EC04F0070E0A6E020E08EC04F0D5
:1008B000090E0A6E96EC04F0060E0E6E130E0D6E07
:1008C000AE0EE82EFED70D2EFCD70E2EFAD7010E57
:1008D000D5EC04F0FEEF3FF00B6A0F0EC16E836A99
:1008E0008450F80B846E956A9650F80B966E89EFDB
:1008F00004F00B50010FD96EDA6ADF50D5EC04F02A
:100900000B2A070E0A6E7D0EE82EFED70A2EFCD7A4
:1009100000000B50010FD96EDA6ADF50D8A493EFB4
:1009200004F095EF04F079EF04F01200A8EF04F062
:100930000AC0F6FF080EF76E0800F550B7EC04F099
:100940000A2A0D0E0B6EFC0EE82EFED70B2EFCD7DE
:100950000AC0F6FF080EF76E0800F5500009D8A48B
:10096000B4EF04F0B6EF04F098EF04F01200096E53
:1009700084808492070E086E7D0EE82EFED7082E26
:10098000FCD7000009C083FF84820D0E086EFC0EA8
:10099000E82EFED7082EFCD784920D0E086EFC0EB2
:1009A000E82EFED7082EFCD71200096E849009C0ED
:1009B00083FF8482070E086E7D0EE82EFED7082E78
:1009C000FCD7000084920D0E086EFC0EE82EFED7B8
:1009D000082EFCD71200000EF66E0A0EF76E000EFF
:1009E000F86E00EE01F010EE07F00900F5CFEEFF13
:1009F000E550E150FAE1000EF86E000140EF04F01E
:070A00003838380C06010034
:047FFC00EBEF04F0B3
:020000040030CA
:08000000000C060EFF8180FFD9
:00000001FF
