:0400000007EF00F016
:0A0008005C82A1ED1CF055EF1BF027
:100800000020202020202020202020202020202008
:10081000200054656D703A2025322E316620430049
:100820004761732044657465637461646F00416C53
:10083000657274613A204761732100496E6963698A
:10084000616E646F2E2E2E0054656D703A204E6FCF
:10085000726D616C0053656E736F72204D512D3255
:100860000054656D703A20416C7461004144433A14
:100870002025303464004172205075726F00696E1B
:0708800066006E616E0000CE
:100888000001816B4EC082F04FC083F050C084F0ED
:1008980051C085F085BF55EF04F053EF04F069EFC0
:1008A80004F0010E816F82C001F083C002F084C0A1
:1008B80003F085C004F055EC1CF001C082F002C0C2
:1008C80083F003C084F004C085F0000E0001876F38
:1008D800000E866FC9C075F0CAC076F08151D8B4D1
:1008E80078EF04F07AEF04F08EEF04F08151D8A489
:1008F80080EF04F082EF04F088EF04F0000E676FD9
:100908002B0E666F8CEF04F0000E676F2D0E666F6E
:1009180066C081F082C001F083C002F084C003F099
:1009280085C004F0AEEC17F001040210D8A49FEFC4
:1009380004F0A1EF04F0D0EF04F000018151D8B425
:10094800A8EF04F0AAEF04F0B3EF04F081C000F1BF
:100958007507D8A07607000E876F010E866F000E08
:100968008625016E010E8721026E7E0E036E1CEC39
:100978001CF00001FD0E7527FF0E76234DC00FF009
:10098800000E106E010E116E75C012F076C013F0D5
:10099800E1EC19F06AEF09F082C001F083C002F0BF
:1009A80084C003F085C004F0AEEC17F001500210CB
:1009B800D8A4E1EF04F0E3EF04F001EF05F0000143
:1009C8008151D8B4EAEF04F0ECEF04F0F5EF04F04D
:1009D80081C000F17507D8A07607000E876F010E59
:1009E800866F000E8625016E010E8721026E820E2B
:1009F800036E1CEC1CF0BDEF04F0000E0001886FC4
:100A0800000E896F800E8A6F3F0E8B6F000E706F1D
:100A1800000E6F6F82C001F083C002F084C003F043
:100A280085C004F0000E056E000E066E000E076EFF
:100A3800000E086EE5EC18F0D8B025EF05F027EFAA
:100A480005F006EF06F034EF05F071C088F072C0CB
:100A580089F073C08AF074C08BF000016F4B702B63
:100A680088C028F089C029F08AC02AF08BC02BF0F2
:100A7800000E2C6E000E2D6E200E2E6E410E2F6E67
:100A8800B2EC0EF028C071F029C072F02AC073F0E1
:100A98002BC074F000017151825D016E725183594F
:100AA800026E73518459036E74518559046ED9ECE2
:100AB8001AF004BE6BEF05F004500310021009E1B0
:100AC800020E015CD8A06BEF05F06DEF05F029EF81
:100AD80005F071C041F072C042F073C043F074C0B9
:100AE80044F082C045F083C046F084C047F085C01A
:100AF80048F02CEC17F0D8A084EF05F086EF05F04D
:100B080029EF05F000018851825D016E89518359F2
:100B1800026E8A518459036E8B518559046ED9EC43
:100B28001AF004BEA5EF05F004500310021007E107
:100B3800020E015CD8B0A3EF05F0A5EF05F0EDEFCC
:100B480005F088C082F089C083F08AC084F08BC029
:100B580085F006EF06F088C00FF089C010F08AC053
:100B680011F08BC012F0000E136E000E146E200EE2
:100B7800156E410E166EC5EC10F00FC088F010C04F
:100B880089F011C08AF012C08BF000016F07D8A05D
:100B980070078851825D016E89518359026E8A51AE
:100BA8008459036E8B518559046ED9EC1AF004BE32
:100BB800EBEF05F004500310021007E1020E015C90
:100BC800D8B0E9EF05F0EBEF05F0EDEF05F0A5EF94
:100BD80005F082C041F083C042F084C043F085C074
:100BE80044F088C045F089C046F08AC047F08BC001
:100BF80048F02CEC17F0D8A004EF06F006EF06F04A
:100C0800AFEF05F052C069F069C06AF00001CCBFCF
:100C180010EF06F012EF06F018EF06F0CBC062F006
:100C2800CCC063F01CEF06F0000E636F060E626F17
:100C380062C06DF063C06EF06D4B6E2B660E6A1964
:100C4800D8A429EF06F02BEF06F04BEF06F070BFA3
:100C580032EF06F030EF06F03EEF06F0000E886F38
:100C6800000E896F800E8A6F3F0E8B6F000E706FBB
:100C7800000E6F6F670E6919D8B445EF06F047EF9D
:100C880006F04BEF06F06F516D2770516E23000E82
:100C9800806F000E7F6F82C077F083C078F084C0C9
:100CA80079F085C07AF088C071F089C072F08AC086
:100CB80073F08BC074F0DCEF06F077C00FF078C0EB
:100CC80010F079C011F07AC012F088C013F089C012
:100CD80014F08AC015F08BC016F0C5EC10F00FC0E8
:100CE80028F010C029F011C02AF012C02BF0EDEC4A
:100CF80013F028C07BF029C07CF02AC07DF02BC0FF
:100D08007EF07BC001F07CC002F07DC003F07EC0A5
:100D180004F0A9EC16F001C06BF002C06CF077C0CB
:100D280041F078C042F079C043F07AC044F07BC00B
:100D38002CF07CC02DF07DC02EF07EC02FF088C036
:100D480028F089C029F08AC02AF08BC02BF0B2ECB9
:100D58000EF028C045F029C046F02AC047F02BC045
:100D680048F078EC1BF041C077F042C078F043C0FF
:100D780079F044C07AF088C00FF089C010F08AC0BA
:100D880011F08BC012F0000E136E000E146E200EC0
:100D9800156E410E166EC5EC10F00FC088F010C02D
:100DA80089F011C08AF012C08BF000017F4B802BB4
:100DB8006D517F5D8051800A536E6E51800A535881
:100DC800D8A0E9EF06F0EBEF06F061EF06F088C077
:100DD80028F089C029F08AC02AF08BC02BF0000EB9
:100DE8002C6E000E2D6EA00E2E6E400E2F6EB2ECE5
:100DF8000EF028C07BF029C07CF02AC07DF02BC003
:100E08007EF077C041F078C042F079C043F07AC0F4
:100E180044F07BC045F07CC046F07DC047F07EC002
:100E280048F02CEC17F0D8B01CEF07F01EEF07F0D5
:100E380029EF07F0000E00017B6F000E7C6F000E9B
:100E48007D6F000E7E6F52EF07F077C001F078C01B
:100E580002F079C003F07AC004F07BC005F07CC0D2
:100E680006F07DC007F07EC008F0E5EC18F0D8A0C9
:100E780040EF07F042EF07F052EF07F000016BB1C7
:100E880048EF07F04AEF07F052EF07F0000E7B6FCC
:100E9800000E7C6F000E7D6F000E7E6F82C001F029
:100EA80083C002F084C003F085C004F07BC005F065
:100EB8007CC006F07DC007F07EC008F057EC0CF04F
:100EC80001C077F002C078F003C079F004C07AF06E
:100ED80077C041F078C042F079C043F07AC044F05E
:100EE800000E2C6E000E2D6E200E2E6E410E2F6EF3
:100EF80071C028F072C029F073C02AF074C02BF0BA
:100F0800B2EC0EF028C045F029C046F02AC047F0E0
:100F18002BC048F02CEC17F0D8A095EF07F097EF0E
:100F280007F0C0EF07F000016F4B702B71C028F07D
:100F380072C029F073C02AF074C02BF0000E2C6E1A
:100F4800000E2D6E200E2E6E410E2F6EB2EC0EF09E
:100F580028C071F029C072F02AC073F02BC074F059
:100F6800660E00016A19D8A4BCEF07F0BEEF07F0BF
:100F7800C0EF07F06D4B6E2B71C088F072C089F01E
:100F880073C08AF074C08BF06FC060F070C061F0FD
:100F98000001686B000E656F000E646F000E806FB5
:100FA800000E7F6FBDEF08F077C00FF078C010F02B
:100FB80079C011F07AC012F088C013F089C014F01B
:100FC8008AC015F08BC016F0C5EC10F00FC028F0E1
:100FD80010C029F011C02AF012C02BF0EDEC13F06C
:100FE80028C07BF029C07CF02AC07DF02BC07EF0A1
:100FF8007BC001F07CC002F07DC003F07EC004F02D
:10100800A9EC16F002BE14EF08F0025007E10A0E30
:10101800015CD8B012EF08F014EF08F024EF08F0E4
:101028007BC001F07CC002F07DC003F07EC004F0FC
:10103800A9EC16F001C06BF002C06CF029EF08F0C3
:10104800000E00016C6F090E6B6F00016851D8A487
:1010580030EF08F032EF08F05AEF08F061BF39EFCF
:1010680008F037EF08F05AEF08F0000E8625D96E21
:10107800010E8721DA6E2E0EDF6E864B872B7507E1
:10108800D8A07607010E686F5AEF08F0000E862583
:10109800D96E010E8721DA6E300EDF6E864B872BF4
:1010A8007507D8A076076407D8A06507645165114D
:1010B800D8A461EF08F063EF08F04AEF08F0000EDB
:1010C8008625D96E010E8721DA6E6B51300FDF6EDF
:1010D800864B872B7507D8A0760777C041F078C074
:1010E80042F079C043F07AC044F07BC02CF07CC059
:1010F8002DF07DC02EF07EC02FF088C028F089C06A
:1011080029F08AC02AF08BC02BF0B2EC0EF028C070
:1011180045F029C046F02AC047F02BC048F078ECCB
:101128001BF041C077F042C078F043C079F044C06A
:101138007AF088C00FF089C010F08AC011F08BC017
:1011480012F0000E136E000E146E200E156E410E76
:10115800166EC5EC10F00FC088F010C089F011C0F1
:101168008AF012C08BF000016007D8A061077F4B9E
:10117800802B6D517F5D8051800A536E6E51800ABD
:101188005358D8B0CAEF08F0CCEF08F0DAEF08F0FF
:1011980087BFD8EF08F0875109E14B0E865DD8A0CC
:1011A800D8EF08F0DAEF08F0D8EF07F0000E806FFC
:1011B8004F0E7F6F000E7F25D96E010E8021DA6EEB
:1011C800DF6A000E536E010E546E8651535E8751CE
:1011D800545A7F515324016E80515420026E000EE0
:1011E800036E010E046E86C005F087C006F02DEC74
:1011F8001BF0000186517F5D866F87518059876F8C
:101208008151D8A40AEF09F00DEF09F0010E0EEF95
:1012180009F0000E7F6F806BCDA315EF09F017EF73
:1012280009F045EF09F027EF09F08607D8A08707EE
:10123800000E8625D96E010E8721DA6E300EDF6E1C
:101248007507D8A0760775517F5D8051800A536E67
:101258007651800A5358D8B034EF09F036EF09F0C8
:1012680045EF09F086517F5D8051800A536E8751A2
:10127800800A5358D8A043EF09F045EF09F019EF59
:1012880009F08151D8B44BEF09F04DEF09F058EF50
:1012980009F08607D8A08707000E8625D96E010EAB
:1012A8008721DA6E81C0DFFF7F51755F8051765BE1
:1012B8004DC00FF0000E8625106E010E8721116EAD
:1012C80075C012F076C013F0E1EC19F012009280AC
:1012D8009282AFEC1CF004EC1BF0010E036E010EC1
:1012E8006AEC1AF03B0E036E0350D8A4080E046E85
:1012F800A2EC1AF09380956A9494949282928C6AE4
:101308008B94F28EF288F292F18EF18C010E036EBC
:10131800010E6AEC1AF0550E036E0350D8A4080E9D
:10132800046EA2EC1AF0010E036E020E6AEC1AF0BB
:101338003B0E036E0350D8A4080E046EA2EC1AF0FC
:101348000001CE51D8B4ABEF09F0ADEF09F062EF70
:101358000AF082A2B2EF09F0B6EF09F05A6A5A2AE7
:10136800B7EF09F05A6A5A468B505A18FD0B5A18AB
:101378008B6E83AEC2EF09F0C6EF09F05A6A5A2A9B
:10138800C7EF09F05A6A5A325A328C505A187F0BF2
:101398005A188C6E83ACD3EF09F0D7EF09F05A6A6C
:1013A8005A2AD8EF09F05A6A5A3A5A465A468C507D
:1013B8005A18BF0B5A188C6E83AAE5EF09F0E9EFAB
:1013C80009F05A6A5A2AEAEF09F05A6A5A3A5A460A
:1013D8008C505A18DF0B5A188C6E83A8F6EF09F058
:1013E800FAEF09F05A6A5A2AFBEF09F05A6A5A3A90
:1013F8008C505A18EF0B5A188C6E83A606EF0AF019
:101408000AEF0AF05A6A5A2A0BEF0AF05A6A5A4641
:101418005A465A468C505A18F70B5A188C6E83A4A1
:1014280018EF0AF01CEF0AF05A6A5A2A1DEF0AF060
:101438005A6A5A465A468C505A18FB0B5A188C6EE0
:1014480083A229EF0AF02DEF0AF05A6A5A2A2EEFE2
:101458000AF05A6A5A468C505A18FD0B5A188C6E64
:1014680083A039EF0AF03DEF0AF05A6A5A2A3EEF94
:101478000AF05A6A8C505A18FE0B5A188C6E82A4BD
:1014880048EF0AF04CEF0AF05A6A5A2A4DEF0AF070
:101498005A6A5A465A468B505A18FB0B5A188B6E82
:1014A800030E5B6ECB0E5A6E450EE82EFED75A2EF3
:1014B800FCD75B2EFAD7000029EF0BF0CF51D8B438
:1014C80068EF0AF06AEF0AF01FEF0BF082A26FEFE5
:1014D8000AF073EF0AF05A6A5A2A74EF0AF05A6A45
:1014E8005A468B505A18FD0B5A188B6E83AE7FEFF5
:1014F8000AF083EF0AF05A6A5A2A84EF0AF05A6A05
:101508005A325A328C505A187F0B5A188C6E83AC48
:1015180090EF0AF094EF0AF05A6A5A2A95EF0AF007
:101528005A6A5A3A5A465A468C505A18BF0B5A1891
:101538008C6E83AAA2EF0AF0A6EF0AF05A6A5A2A1A
:10154800A7EF0AF05A6A5A3A5A468C505A18DF0BD3
:101558005A188C6E83A8B3EF0AF0B7EF0AF05A6AEC
:101568005A2AB8EF0AF05A6A5A3A8C505A18EF0BAE
:101578005A188C6E83A6C3EF0AF0C7EF0AF05A6AAE
:101588005A2AC8EF0AF05A6A5A465A465A468C509E
:101598005A18F70B5A188C6E83A4D5EF0AF0D9EFB6
:1015A8000AF05A6A5A2ADAEF0AF05A6A5A465A462A
:1015B8008C505A18FB0B5A188C6E83A2E6EF0AF06F
:1015C800EAEF0AF05A6A5A2AEBEF0AF05A6A5A46C0
:1015D8008C505A18FD0B5A188C6E83A0F6EF0AF03F
:1015E800FAEF0AF05A6A5A2AFBEF0AF05A6A8C5044
:1015F8005A18FE0B5A188C6E82A405EF0BF009EFEF
:101608000BF05A6A5A2A0AEF0BF05A6A5A465A4697
:101618008B505A18FB0B5A188B6E020E5B6E860E97
:101628005A6E990EE82EFED75A2EFCD75B2EFAD7A3
:10163800000029EF0BF08292959E959C959A9598BB
:1016480095969594959295909494000E9BEC1BF02A
:1016580001C0BFF002C0C0F0010E9BEC1BF001C03E
:10166800B9F002C0BAF0B9C041F0BAC042F02CECEF
:101678001AF041C0BBF042C0BCF043C0BDF044C04A
:10168800BEF0010E036E010E6AEC1AF0A80E0001FE
:10169800966F6C0E976FBFC098F0C0C099F039EC88
:1016A8001CF0A80E036E046AA2EC1AF0010E036E79
:1016B800020E6AEC1AF0A80E0001966F120E976FD0
:1016C800BBC098F0BCC099F0BDC09AF0BEC09BF0FA
:1016D80039EC1CF0A80E036E046AA2EC1AF00D0E89
:1016E8005B6EAF0E5A6EB60EE82EFED75A2EFCD79A
:1016F8005B2EFAD700D0010E036E010E6AEC1AF0C9
:10170800910E0001BF5D010EC059D8A08EEF0BF0FD
:1017180090EF0BF0AFEF0BF0010E036E010E6AECC9
:101728001AF0010E036E0350D8A4080E046EA2EC42
:101738001AF0010E036E010E6AEC1AF02E0E036EFB
:101748000350D8A4080E046EA2EC1AF0010E000192
:10175800CF6FF0EF0BF0C05109E1C90EBF5DD8A003
:10176800B8EF0BF0BAEF0BF0D6EF0BF0010E036EEB
:10177800010E6AEC1AF0010E036E0350D8A4080E8D
:10178800046EA2EC1AF0010E036E010E6AEC1AF058
:10179800200E036E0350D8A4080E046EA2EC1AF0B3
:1017A800AAEF0BF0010E036E010E6AEC1AF0010E9F
:1017B800036E0350D8A4080E046EA2EC1AF0010EB2
:1017C800036E010E6AEC1AF0760E036E0350D8A46D
:1017D800080E046EA2EC1AF00E0E036E020E6AECEE
:1017E8001AF0000E416E000E426E340E436E420E29
:1017F800446EBBC045F0BCC046F0BDC047F0BEC09B
:1018080048F02CEC17F0D8B00CEF0CF00EEF0CF001
:1018180039EF0CF0010E036E020E6AEC1AF0010E9D
:10182800036E0350D8A4080E046EA2EC1AF0010E41
:10183800036E020E6AEC1AF0610E036E0350D8A410
:10184800080E046EA2EC1AF0010E0001CF6F0D0E07
:101858005B6EAF0E5A6EB60EE82EFED75A2EFCD728
:101868005B2EFAD700D0A4EF09F0010E036E020E2A
:101878006AEC1AF0010E036E0350D8A4080E046E29
:10188800A2EC1AF0010E036E020E6AEC1AF0480E72
:10189800036E0350D8A4080E046EA2EC1AF02BEFC6
:1018A8000CF007EF00F00450800B0D6E0450042478
:1018B8000F6E03AE62EF0CF064EF0CF065EF0CF006
:1018C8000F800F50D8B46BEF0CF06DEF0CF081EF78
:1018D8000CF00F28D8A473EF0CF075EF0CF07DEF27
:1018E8000CF0000E016E000E026E000E036E000E6C
:1018F800046E038E046A89EF0CF0000E016E000E70
:10190800026E000E036E000E046E0850800B0E6E01
:101918000D500E18D8B493EF0CF095EF0CF096EF2D
:101928000CF00D8C085008240E6E07AE9EEF0CF0DC
:10193800A0EF0CF0A1EF0CF00E800E50D8B4A7EF7A
:101948000CF0A9EF0CF0BDEF0CF00E28D8A4AFEF07
:101958000CF0B1EF0CF0B9EF0CF0000E056E000EB4
:10196800066E000E076E000E086E078E086AC5EF39
:101978000CF0000E056E000E066E000E076E000ECF
:10198800086E0F500E5CD8B0CCEF0CF0CEEF0CF018
:10199800F5EF0CF00DACD3EF0CF0D5EF0CF0D7EF62
:1019A8000CF0800E0D1A0FC010F00EC00FF010C012
:1019B8000EF001C010F005C001F010C005F002C023
:1019C80010F006C002F010C006F003C010F007C007
:1019D80003F010C007F004C010F008C004F010C0F5
:1019E80008F0106A0F500EC009F00A6A095E000E6E
:1019F8000A5A0ABE09EF0DF00A5009E11A0E095CED
:101A0800D8A009EF0DF00BEF0DF042EF0DF00150EB
:101A1800021003100410D8A414EF0DF017EF0DF006
:101A2800010E18EF0DF0000E106E000E016E000E84
:101A3800026E000E036E000E046E0EC00FF04BEF28
:101A48000DF010A02AEF0DF02CEF0DF032EF0DF095
:101A5800D89010300109106E34EF0DF0D890103284
:101A680001A039EF0DF03BEF0DF03CEF0DF0108EBB
:101A7800043404320332023201320F2A0E500F5C52
:101A8800D8A049EF0DF04BEF0DF025EF0DF00DBC90
:101A980050EF0DF052EF0DF092EF0DF00F50D8A46B
:101AA80058EF0DF05AEF0DF064EF0DF0000E016ED7
:101AB800000E026E000E036E000E046EB1EF0EF003
:101AC800055001260650022207500322085004221E
:101AD80004A071EF0DF073EF0DF01FEF0EF010A0E2
:101AE80078EF0DF07AEF0DF080EF0DF0D890103010
:101AF8000109106E82EF0DF0D890103201A087EF27
:101B08000DF089EF0DF08AEF0DF0108E04340432D9
:101B18000332023201320F2A1FEF0EF00550015C2A
:101B280006500258075003580450800A096E08509E
:101B3800800A0958D8B0A3EF0DF0A5EF0DF0D0EF4B
:101B48000DF00150055C096E025006580A6E0350EC
:101B580007580B6E045008580C6EFF0E0924016ECE
:101B6800FF0E0A20026EFF0E0B20036EFF0E0C20E4
:101B7800046E800E0D1A106C1050D8A4C6EF0DF02C
:101B8800C8EF0DF0D8EF0DF0010E0126000E02226D
:101B980003220422D8EF0DF00550015E0650025AC8
:101BA8000750035A0850045A015002100310041039
:101BB800D8A4E1EF0DF0E3EF0DF018EF0EF01050A0
:101BC800D8A4E9EF0DF0EBEF0DF018EF0EF0000ED2
:101BD800016E000E026E000E036E000E046EB1EF71
:101BE8000EF0D890013602360336043610AEFFEFF9
:101BF8000DF001EF0EF002EF0EF0018010A007EFDC
:101C08000EF009EF0EF00DEF0EF0D88010360FEF42
:101C18000EF0D89010360F50D8B415EF0EF017EF1D
:101C28000EF018EF0EF00F0603AE1DEF0EF01FEFCB
:101C38000EF0F5EF0DF00E6A10AE25EF0EF027EF5F
:101C48000EF03FEF0EF010C009F07F0E0916D8B461
:101C580030EF0EF032EF0EF036EF0EF0010E0E6E92
:101C68003FEF0EF001A03BEF0EF03DEF0EF03FEF1F
:101C78000EF032EF0EF00E50D8B445EF0EF047EFED
:101C88000EF072EF0EF0010E0126000E0222032262
:101C9800042204A052EF0EF054EF0EF072EF0EF093
:101CA80001C009F002C00AF003C00BF004C00CF038
:101CB8000C340C320B320A32093209C001F00AC066
:101CC80002F00BC003F00CC004F00F28D8B46FEF7B
:101CD8000EF071EF0EF072EF0EF00F2A0F28D8B445
:101CE80078EF0EF07AEF0EF082EF0EF00F50D8A4D6
:101CF80080EF0EF082EF0EF093EF0EF0000E016E03
:101D0800000E026E000E036E000E046E0F50D8A473
:101D180090EF0EF092EF0EF093EF0EF00D6A0FA019
:101D280098EF0EF09AEF0EF09DEF0EF0038E9EEFF7
:101D38000EF0039ED8900F30046E0DAEA6EF0EF095
:101D4800A8EF0EF0A9EF0EF0048E01C001F002C05A
:101D580002F003C003F004C004F012002B50800B03
:101D6800346E2B502B243A6E2AAEBDEF0EF0BFEF27
:101D78000EF0C0EF0EF03A803A50D8B4C6EF0EF02D
:101D8800C8EF0EF0DBEF0EF03A28D8A4CEEF0EF035
:101D9800D0EF0EF0D8EF0EF0000E286E000E296E70
:101DA800000E2A6E000E2B6E2A8EE3EF0EF0000E48
:101DB800286E000E296E000E2A6E000E2B6E2F5014
:101DC800800B341A2F502F24356E2EAEEEEF0EF006
:101DD800F0EF0EF0F1EF0EF035803550D8B4F7EF94
:101DE8000EF0F9EF0EF00CEF0FF03528D8A4FFEF46
:101DF8000EF001EF0FF009EF0FF0000E2C6E000E41
:101E08002D6E000E2E6E000E2F6E2E8E14EF0FF01C
:101E1800000E2C6E000E2D6E000E2E6E000E2F6E14
:101E28003550D8B41AEF0FF01CEF0FF024EF0FF075
:101E38003A50D8A422EF0FF024EF0FF02EEF0FF056
:101E4800000E286E000E296E000E2A6E000E2B6EF4
:101E5800C4EF10F02E502802F3CF3FF0F4CF40F03B
:101E68003F50366E376A386A396A40503B6E3C6A72
:101E78003D6A3E6A2D502902F3CF3FF0F4CF40F07F
:101E88003F503626000E37223822392240503B2652
:101E9800000E3C223D223E222C502A02F3CF3FF076
:101EA800F4CF40F03F503626000E37223822392230
:101EB80040503B26000E3C223D223E2238C039F0DD
:101EC80037C038F036C037F0366A2C502902F3CFC5
:101ED8003FF0F4CF40F03F50362640503722000EF6
:101EE8003822000E39222D502802F3CF3FF0F4CFCC
:101EF80040F03F50362640503722000E3822000E60
:101F0800392238C039F037C038F036C037F0366A71
:101F18002C502802F3CF3FF0F4CF40F03F50362644
:101F280040503722000E3822000E39222E50290246
:101F3800F3CF3FF0F4CF40F03F503B2640503C22D7
:101F4800000E3D22000E3E222D502A02F3CF3FF014
:101F5800F4CF40F03F503B2640503C22000E3D223B
:101F6800000E3E222E502A02F3CF3FF0F4CF40F06D
:101F78003F50306E4050316E326A336A32C033F0AF
:101F880031C032F030C031F0306A30503B26315029
:101F98003C2232503D2233503E2236C030F037C00A
:101FA80031F038C032F039C033F0190EE1EF0FF0DC
:101FB800D8903332323231323032E82EDCEF0FF043
:101FC80030503B2631503C2232503D2233503E2285
:101FD80038C039F037C038F036C037F0366A355077
:101FE8003AC030F0316A3026000E3122820E302499
:101FF8003F6EFF0E3120406E17EF10F0D8903B3641
:102008003C363D363E3639AE0CEF10F00EEF10F090
:102018000FEF10F03B80D8903636373638363936E1
:102028003F06D8A040063DAE1CEF10F01EEF10F0A2
:1020380002EF10F0356A39AE24EF10F026EF10F0F9
:102048004AEF10F0FF0E3614306EFF0E3714316E63
:10205800FF0E3814326E7F0E3914336E3050311043
:1020680032103310D8B43BEF10F03DEF10F041EFD1
:1020780010F0010E356E4AEF10F03BA046EF10F05D
:1020880048EF10F04AEF10F03DEF10F03550D8B49B
:1020980050EF10F052EF10F076EF10F0010E3B26E3
:1020A800000E3C223D223E223EA05DEF10F05FEF85
:1020B80010F076EF10F03BC030F03CC031F03DC07E
:1020C80032F03EC033F033343332323231323032D0
:1020D80030C03BF031C03CF032C03DF033C03EF080
:1020E8003F4A402A40BE81EF10F0405008E13F28A7
:1020F800D8A081EF10F083EF10F08DEF10F0000EF4
:102108003B6E000E3C6E800E3D6E7F0E3E6EBAEF4B
:1021180010F040BE9AEF10F0405006E13F04D8B0EE
:1021280098EF10F09AEF10F0A5EF10F0000E3B6E4C
:10213800000E3C6E000E3D6E000E3E6E346ABAEF25
:1021480010F03FC03AF0FF0E3B16FF0E3C167F0E14
:102158003D16000E3E163AA0B4EF10F0B6EF10F0A0
:10216800B7EF10F03D8ED8903A303E6E34503E12A4
:102178003BC028F03CC029F03DC02AF03EC02BF0FF
:1021880012001250800B1F6E12501224266E11AED0
:10219800D0EF10F0D2EF10F0D3EF10F026802650D9
:1021A800D8B4D9EF10F0DBEF10F0EFEF10F02628DD
:1021B800D8A4E1EF10F0E3EF10F0EBEF10F0000E11
:1021C8000F6E000E106E000E116E000E126E118E44
:1021D800126AF7EF10F0000E0F6E000E106E000E70
:1021E800116E000E126E1650800B1F1A1650162410
:1021F800276E15AE02EF11F004EF11F005EF11F0A4
:1022080027802750D8B40BEF11F00DEF11F021EF14
:1022180011F02728D8A413EF11F015EF11F01DEFD6
:1022280011F0000E136E000E146E000E156E000EE7
:10223800166E158E166A29EF11F0000E136E000E39
:10224800146E000E156E000E166E13501410151035
:102258001610D8A432EF11F034EF11F04CEF11F052
:10226800000E0F6E000E106E000E116E000E126E34
:10227800800E11127F0E12121F5012120FC00FF093
:1022880010C010F011C011F012C012F08CEF12F053
:102298002650D8A452EF11F054EF11F05EEF11F070
:1022A800000E0F6E000E106E000E116E000E126EF4
:1022B8008CEF12F0275026C017F0186A175E000E30
:1022C800185A7F0E1724206E000E1820216E0FC09A
:1022D8001BF010C01CF011C01DF012C01EF0000E43
:1022E8000F6E000E106E000E116E000E126E000EB4
:1022F800226E000E236E000E246E000E256E276AD5
:10230800BEEF11F02750D8B48CEF11F08EEF11F01A
:10231800A5EF11F0D8901B361C361D361E36D89006
:102328000F3610361136123625AE9DEF11F09FEF9D
:1023380011F0A0EF11F00F80D89022362336243602
:10234800253613501B5C14501C5815501D58165038
:102358001E58D8A0B2EF11F0B4EF11F0BDEF11F094
:10236800258C13501B5E14501C5A15501D5A1650BC
:102378001E5A272A190E2764C4EF11F0C6EF11F070
:1023880086EF11F01B501C101D101E10D8B4CFEF93
:1023980011F0D1EF11F0E9EF11F02280E9EF11F01F
:1023A800D8900F3610361136123625AEDEEF11F002
:1023B800E0EF11F0E1EF11F00F80D89022362336CC
:1023C800243625362006D8A0210611AEEEEF11F0EE
:1023D800F0EF11F0D4EF11F0276A25AEF6EF11F007
:1023E800F8EF11F01CEF12F0FF0E2214176EFF0E1B
:1023F8002314186EFF0E2414196E7F0E25141A6EFE
:102408001750181019101A10D8B40DEF12F00FEF5A
:1024180012F013EF12F0010E276E1CEF12F00FA04E
:1024280018EF12F01AEF12F01CEF12F00FEF12F083
:102438002750D8B422EF12F024EF12F048EF12F030
:10244800010E0F26000E10221122122212A02FEFC9
:1024580012F031EF12F048EF12F00FC017F010C071
:1024680018F011C019F012C01AF01A341A321932C1
:102478001832173217C00FF018C010F019C011F039
:102488001AC012F0204A212A21BE53EF12F021501F
:1024980008E12028D8A053EF12F055EF12F060EFB2
:1024A80012F0000E216E2068000E0F6E000E106EE6
:1024B800000E116E000E126E21BE6DEF12F021504B
:1024C80006E12004D8B06BEF12F06DEF12F07AEF4E
:1024D80012F0000E216E000E206E000E0F6E000E20
:1024E800106E000E116E000E126E1F6A20C026F0CC
:1024F80026A081EF12F083EF12F086EF12F0118E12
:1025080087EF12F0119ED8902630126E40EF11F02E
:1025180012005650D96EDA6ADFCFF6FF080EF76E52
:102528000800F550250AD8A49CEF12F09EEF12F08F
:10253800DBEF13F05650D96EDA6ADF2A000E00017D
:10254800CA6F000EC96FC9C0CDF0CB69CC698C6B5E
:10255800C8EF12F0CD835650D96EDA6ADF2AC8EF79
:1025680012F0010E8C6FC8EF12F05650D96EDA6A6D
:10257800DFCFF6FF080EF76E0800F550300AD8B422
:10258800AEEF12F0B5EF12F08C51D8B4CEEF12F0D6
:10259800D0EF12F0B9EF12F056C001F057C002F0B8
:1025A8008FEC19F001C0C9F002C0CAF00001CABF1F
:1025B800E2EF12F0E0EF12F0E7EF12F0CD81C96D13
:1025C800CA1FD8B0CA2B5650D96EDA6ADFCFF6FFC9
:1025D800080EF76E0800F5502E0AD8A4F6EF12F090
:1025E800F8EF12F006EF13F05650D96EDA6ADF2AC8
:1025F80056C001F057C002F08FEC19F001C0CBF0C3
:1026080002C0CCF05650D96EDA6ADF500001926FE2
:1026180092C0F6FF080EF76E0800F550640AD8B4A9
:1026280018EF13F01AEF13F028EF13F092C0F6FF2B
:10263800080EF76E0800F550690AD8A426EF13F0C3
:1026480028EF13F043EF13F05750D96EDA6A020EF1
:10265800DF26DF5CD96EDA6ADECF8DF0DECF8EF052
:102668005650D96EDA6A9229DF6E55C017F08DC0C0
:1026780018F08EC019F0D0EC15F0ECEF13F05650AE
:10268800D96EDA6ADF50926F92C0F6FF080EF76EC5
:102698000800F5CF91F05BEF13F0922B6AEF13F07F
:1026A8006C0E916F6AEF13F0916B6AEF13F0915112
:1026B8004C0AD8B451EF13F02A0AD8B454EF13F0E7
:1026C8000A0AD8B451EF13F058EF13F092C0F6FF8E
:1026D800080EF76E0800F550660AD8A476EF13F0D6
:1026E80078EF13F0D5EF13F0A2EF13F05750D96E2F
:1026F800DA6ADFCF58F0040EDF265850D96EDA6A4E
:10270800DECF8DF0DECF8EF0DECF8FF0DECF90F013
:10271800ADEF13F05750D96EDA6ADFCF58F0040ED8
:10272800DF265850D96EDA6ADECF8DF0DECF8EF014
:10273800DECF8FF0DECF90F0ADEF13F091514C0A61
:10274800D8B48EEF13F0200AD8B47AEF13F0ADEFB7
:1027580013F05650D96EDA6A9229DF6EC9EF13F07A
:1027680055C04DF08DC04EF08EC04FF08FC050F068
:1027780090C051F092C0F6FF080EF76E0800F5CF32
:1027880052F044EC04F0ECEF13F092C0F6FF080EA0
:10279800F76E0800F550660AD8B4B4EF13F0D5EF19
:1027A80013F05650D96EDA6ADF2AECEF13F0565060
:1027B800D96EDA6ADFCFF6FF080EF76E0800F5501B
:1027C800016E026A55C003F03AEC19F0D5EF13F028
:1027D8001200C1C038F0C2C039F0C3C03AF0C4C05A
:1027E8003BF028C038F029C039F02AC03AF02BC095
:1027F8003BF0810E2C6EFF0E2D6E38C02EF039C0C6
:102808002FF03AC030F03BC031F0180E11EF14F041
:10281800D890313230322F322E32E82E0CEF14F0AD
:102828002E502C24366E000E2D20376E37BE26EF24
:1028380014F0375009E1170E365CD8A026EF14F0D3
:1028480028EF14F032EF14F028C028F029C029F03E
:102858002AC02AF02BC02BF0F5EF14F037BE37EF63
:1028680014F039EF14F0A9EF14F036C02CF0FF0E75
:102878002D6EFF0E2E6E7F0E2F6E000E306E2C66A4
:1028880048EF14F050EF14F0303430322F322E323B
:102898002D322C2E43EF14F02DC032F02EC033F021
:1028A8002FC034F030C035F0325038142C6E33500D
:1028B80039142D6E34503A142E6E35503B142F6E49
:1028C8002C502D102E102F10D8A46DEF14F06FEF90
:1028D80014F071EF14F028EF14F038C02CF039C060
:1028E8002DF03AC02EF03BC02FF0200E81EF14F0EF
:1028F800D8902F322E322D322C32E82E7CEF14F065
:102908002C502D102E102F10D8B48DEF14F08FEFFF
:1029180014F097EF14F032503826335039223450DF
:102928003A2235503B22321C2C6E331C2D6E341C3F
:102938002E6E351C2F6E2C5038162D5039162E50F1
:102948003A162F503B16EDEF14F038C02CF039C072
:102958002DF03AC02EF03BC02FF0200EB9EF14F046
:10296800D8902F322E322D322C32E82EB4EF14F0BC
:102978002C502D102E102F10D8A4C5EF14F0C7EF2F
:1029880014F0D1EF14F0000E386E000E396E000E00
:102998003A6E000E3B6EEDEF14F0D89038342C6E82
:1029A80039342D6E3A342E6E3B342F6E2C502D1048
:1029B8002E102F10D8B4E3EF14F0E5EF14F0EDEF7C
:1029C80014F0000E386E000E396E800E3A6EBF0E8F
:1029D8003B6E38C028F039C029F03AC02AF03BC015
:1029E8002BF01200096E0950D8B4FDEF14F0FFEF78
:1029F80014F021EF15F004BE06EF15F004EF15F002
:102A080021EF15F001C005F002C006F003C007F081
:102A180004C008F0051E061E071E081E052A000E23
:102A280006220722082205C00BF006C00CF007C0DA
:102A38000DF008C00EF029EF15F001C00BF002C030
:102A48000CF003C00DF004C00EF00150021003108A
:102A58000410D8A432EF15F034EF15F03EEF15F05E
:102A6800000E016E000E026E000E036E000E046E64
:102A7800CFEF15F0960E0A6E48EF15F00A2AD89097
:102A88000E320D320C320B32000E0B14056E000E96
:102A98000C14066E000E0D14076EFE0E0E14086E52
:102AA8000550061007100810D8A45DEF15F05FEF69
:102AB80015F042EF15F06DEF15F00A2A010E0B26FE
:102AC800000E0C220D220E22D8900E320D320C323E
:102AD8000B32000E0B14056E000E0C14066E000E61
:102AE8000D14076EFF0E0E14086E05500610071021
:102AF8000810D8A482EF15F084EF15F061EF15F0F7
:102B08008CEF15F00A06D8900B360C360D360E36BB
:102B18000DBE91EF15F093EF15F09BEF15F0020E37
:102B28000A6099EF15F09BEF15F086EF15F00AB0E3
:102B3800A0EF15F0A2EF15F0A3EF15F00D9ED890B9
:102B48000A320AC005F0066A076A086A05C008F072
:102B5800076A066A056A05500B1206500C120750E0
:102B68000D1208500E120950D8B4BDEF15F0BFEF82
:102B780015F0C7EF15F004BEC6EF15F0C4EF15F059
:102B8800C7EF15F00E8E0BC001F00CC002F00DC09F
:102B980003F00EC004F0120019BED5EF15F0D8EFFF
:102BA80015F0010ED9EF15F0000E206E0001CCBF14
:102BB800E0EF15F0E2EF15F0E3EF15F0CD93CCBFA1
:102BC800EAEF15F0E8EF15F0F0EF15F0000E1D6EC6
:102BD800010E1C6EF4EF15F0CBC01CF0CCC01DF03C
:102BE800C9C01EF0CAC01FF02050D8B4FEEF15F0BF
:102BF80000EF16F017EF16F01E06D8A01F0620509B
:102C0800D8A409EF16F00BEF16F011EF16F0000E2E
:102C18001B6E2B0E1A6E15EF16F0000E1B6E2D0E86
:102C28001A6E1AC020F0000E226E4F0E216E01019E
:102C38004F6B4FEF16F02106D8A02206000E212474
:102C4800D96E010E2220DA6E18C001F019C002F008
:102C5800000E046E0A0E036E8EEC18F001C007F029
:102C680002C008F071EC1CF00750300FDF6E1C0634
:102C7800D8A01D061E06D8A01F0618C001F019C04E
:102C880002F0000E046E0A0E036E2DEC18F001C05F
:102C980018F002C019F022BE5AEF16F0225008E1CF
:102CA8002104D8A05AEF16F05CEF16F087EF16F063
:102CB80018501910D8A463EF16F065EF16F01FEF3F
:102CC80016F01DBE72EF16F01D5006E11C04D8B0B8
:102CD80070EF16F072EF16F01FEF16F01FBE7DEFC3
:102CE80016F01F5008E11E04D8A07DEF16F07FEF04
:102CF80016F087EF16F00001CDB385EF16F087EFD9
:102D080016F01FEF16F02050D8B48DEF16F08FEFA5
:102D180016F09AEF16F02106D8A02206000E2124FC
:102D2800D96E010E2220DA6E20C0DFFF17C00FF027
:102D3800000E2124106E010E2220116E1EC012F00A
:102D48001FC013F0E1EC19F01200033404340A6ECA
:102D58000A50D8A4B2EF16F0B4EF16F0BEEF16F092
:102D6800000E016E000E026E000E036E000E046E61
:102D78002BEF17F001C005F002C006F003C007F002
:102D880004C008F0200ECEEF16F0D89008320732B3
:102D980006320532E82EC9EF16F00550096E038E8B
:102DA800FF0E0116FF0E0216FF0E0316000E041684
:102DB800960E0A5E0ABEE5EF16F0E3EF16F0FBEF9B
:102DC80016F00A50800A970FD8B0EDEF16F0EFEF23
:102DD80016F0F1EF16F0B4EF16F0D8900432033283
:102DE800023201320A3EF1EF16F013EF17F01F0E10
:102DF8000A6401EF17F003EF17F00BEF17F0B4EFC9
:102E080016F0D89001360236033604360A060A5000
:102E1800D8A411EF17F013EF17F005EF17F00950CA
:102E2800D8B419EF17F01BEF17F023EF17F0041EB3
:102E3800031E021E016C000E02220322042201C09E
:102E480001F002C002F003C003F004C004F0120055
:102E5800000E4114496E000E42144A6E800E43144F
:102E68004B6E7F0E44144C6E49504A104B104C1058
:102E7800D8A441EF17F043EF17F04BEF17F0000E0F
:102E8800416E000E426E000E436E000E446E000E40
:102E98004514496E000E46144A6E800E47144B6E58
:102EA8007F0E48144C6E49504A104B104C10D8A451
:102EB80060EF17F062EF17F06AEF17F0000E456E3B
:102EC800000E466E000E476E000E486E44AE6FEF61
:102ED80017F071EF17F07AEF17F0416C421ED8B077
:102EE800422A431ED8B0432A800E445648AE7FEF8C
:102EF80017F081EF17F08AEF17F0456C461ED8B02F
:102F0800462A471ED8B0472A800E4856000E411A56
:102F1800000E421A000E431A800E441A000E451A7B
:102F2800000E461A000E471A800E481A4550415C9A
:102F3800465042584750435848504458D8B0A7EFD5
:102F480017F0A9EF17F0ACEF17F0D890ADEF17F026
:102F5800D8801200C5C00BF0C6C00CF0C7C00DF079
:102F6800C8C00EF001C00BF002C00CF003C00DF099
:102F780004C00EF00BC005F00CC006F00DC007F041
:102F88000EC008F0180ECEEF17F0D89008320732AE
:102F980006320532E82EC9EF17F00550096E0A6AA5
:102FA80009500A10D8A4DBEF17F0DDEF17F0FDEF9A
:102FB80017F0D8900B34056E0C34066E0D34076E7E
:102FC8000E34086E0550061007100810D8A4EFEF4D
:102FD80017F0F1EF17F0F7EF17F0000E026E020E80
:102FE800016E2CEF18F0000E026E030E016E2CEF2E
:102FF80018F009280A10D8A404EF18F006EF18F002
:1030080028EF18F00BC005F00CC006F00DC007F053
:103018000EC008F0090ED890053606360736083671
:10302800E82E0FEF18F00550061007100810D8B456
:1030380020EF18F023EF18F0010E24EF18F0000E1F
:10304800016E026A2CEF18F0000E026E040E016E7B
:103058001200066A04BE35EF18F033EF18F03BEFA4
:1030680018F0036C041ED8B0042A010E066E02BEC6
:1030780042EF18F040EF18F048EF18F0016C021E0C
:10308800D8B0022A010E061A000E086E000E076E4E
:1030980003500410D8B453EF18F055EF18F07DEF33
:1030A80018F0010E056E5DEF18F0D890033604365F
:1030B800052A04AE62EF18F064EF18F059EF18F023
:1030C800D890073608360350015C04500258D8A03F
:1030D80070EF18F072EF18F077EF18F00350015EF8
:1030E8000450025A0780D89004320332052E64EF48
:1030F80018F00650D8B483EF18F085EF18F089EF70
:1031080018F0076C081ED8B0082A07C001F008C0DC
:1031180002F01200066A02BE96EF18F094EF18F05B
:103128009CEF18F0016C021ED8B0022A010E066E40
:1031380004BEA3EF18F0A1EF18F0A7EF18F0036C86
:10314800041ED8B0042A03500410D8B4AEEF18F007
:10315800B0EF18F0D4EF18F0010E056EB8EF18F0C4
:10316800D89003360436052A04AEBDEF18F0BFEF39
:1031780018F0B4EF18F00350015C04500258D8A0BE
:10318800C8EF18F0CAEF18F0CEEF18F00350015E40
:103198000450025AD89004320332052EBFEF18F0BB
:1031A8000650D8B4DAEF18F0DCEF18F0E0EF18F0BA
:1031B800016C021ED8B0022A01C001F002C002F060
:1031C8001200000E0114096E000E02140A6E800E21
:1031D80003140B6E7F0E04140C6E09500A100B10AA
:1031E8000C10D8A4FAEF18F0FCEF18F004EF19F05F
:1031F800000E016E000E026E000E036E000E046ECD
:10320800000E0514096E000E06140A6E800E0714CF
:103218000B6E7F0E08140C6E09500A100B100C1060
:10322800D8A419EF19F01BEF19F023EF19F0000ECD
:10323800056E000E066E000E076E000E086E055035
:1032480001180FE1065002180CE10750031809E1B4
:1032580008500418D8B433EF19F035EF19F038EFE7
:1032680019F0D89039EF19F0D88012000350D8B46B
:1032780040EF19F042EF19F04AEF19F00350D8A4C3
:1032880048EF19F04AEF19F04FEF19F00150BAEC76
:103298001CF08EEF19F00350D96EDA6A090ED926A0
:1032A800DE50DE10D8B45BEF19F05DEF19F076EF61
:1032B80019F00350D96EDA6A090ED9260350E16E67
:1032C800E26A020EE126DE50E65CE650800A086EED
:1032D800DE50800A0858D8B074EF19F076EF19F06C
:1032E8008EEF19F00350D96EDA6A020ED926DF5034
:1032F800046E0350D96EDA6ADF500424D96EDA6A94
:1033080001C0DFFF0350D96EDA6A020ED926DE2A21
:10331800000EDD221200000E076E000E066E015030
:10332800D96EDA6ADFCFF6FF080EF76E0800F5509F
:103338002A0AD8A4A2EF19F0A4EF19F0C9EF19F0DE
:103348000150D96EDA6ADF2A0250D96EDA6A020EA3
:10335800DF26DF5CD96EDA6ADECF06F0DECF07F053
:10336800DCEF19F00A0E0602F3CF03F0F4CF04F0F5
:103378000702F350042605500324066E000E0420AD
:10338800076E0150D96EDA6ADF2A0150D96EDA6AFF
:10339800DFCFF6FF080EF76E0800F550D00F056E68
:1033A800090E0564DAEF19F0DCEF19F0B6EF19F041
:1033B80006C001F007C002F012000001CDA1E7EF3E
:1033C80019F0E9EF19F0F1EF19F010C009F011C088
:1033D8000AF00FC00BF0DDEC1BF013BEF8EF19F08C
:1033E800F6EF19F0FCEF19F0000E136E000E126ED6
:1033F800000E166E000E156E0CEF1AF0000E026E1F
:10340800200E016E0FC003F03AEC19F0154A162A87
:103418001250155C1650800A146E1350800A145806
:10342800D8A019EF1AF01BEF1AF002EF1AF00001FA
:10343800CDB121EF1AF023EF1AF02BEF1AF010C0DC
:1034480009F011C00AF00FC00BF0DDEC1BF0120000
:10345800000E136E800E146E6D0E156E440E166EF1
:1034680041C001F042C002F0036A046A000EF6ECA3
:1034780014F001C00FF002C010F003C011F004C036
:1034880012F0C5EC10F00FC028F010C029F011C0E0
:103498002AF012C02BF0000E2C6E000E2D6ED80EE6
:1034A8002E6E410E2F6EB2EC0EF028C045F029C0EA
:1034B80046F02AC047F02BC048F045C041F046C04E
:1034C80042F047C043F048C044F01200046E056A59
:1034D800030683EF1AF00350800F056E96EF1AF07B
:1034E8000350C00F056E96EF1AF00350900F056E4B
:1034F80096EF1AF00350D00F056E96EF1AF00450AD
:10350800010AD8B46FEF1AF0030AD8B474EF1AF0AE
:10351800010AD8B479EF1AF0070AD8B47EEF1AF086
:1035280096EF1AF00550D8B49CEF1AF09EEF1AF0F7
:10353800A1EF1AF005508BEC1CF01200C0EF1AF046
:1035480003C0F6FF04C0F7FFF86A070EF76403D05C
:103558000800F55005D0F6CFE1FFF7CFE2FFE750BE
:10356800FDEC1BF0034A042A070E056E7D0EE82EBB
:10357800FED7052EFCD7000003C0F6FF04C0F7FFF6
:10358800F86A070EF76403D00800F55005D0F6CFA7
:10359800E1FFF7CFE2FFE7500009D8A4D6EF1AF011
:1035A800D8EF1AF0A4EF1AF0120004BEDEEF1AF0FA
:1035B800E0EF1AF0EAEF1AF001C001F002C002F0E1
:1035C80003C003F004C004F003EF1BF001C005F0D2
:1035D80002C006F003C007F004C008F0051E061E6E
:1035E800071E081E052A000E06220722082205C00B
:1035F80001F006C002F007C003F008C004F0120092
:10360800046A0F0EC16E836A8450F80B846E956A43
:103618009650F80B966E20EF1BF00450D00FD96E21
:10362800DA6ADF508BEC1CF0042A040E036E3E0E9F
:10363800E82EFED7032EFCD70450D00FD96EDA6AD5
:10364800DF50D8A42AEF1BF02CEF1BF011EF1BF072
:10365800120003C00AF004C00BF001C008F002C059
:1036680009F047EF1BF00AC0D9FF0BC0DAFFDF50A3
:10367800076E0A4A0B2A08C0D9FF09C0DAFF07C03B
:10368800DFFF084A092A0506D8A00606052806E12C
:103698000628D8A452EF1BF054EF1BF037EF1BF0AD
:1036A80012006C0EF66E390EF76E000EF86E00EE14
:1036B800D0F010EE07F00900F5CFEEFFE550E1502D
:1036C800FAE101EE00F0500EEE6AE806FDE100EEC8
:1036D800C1F00F0EEE6AE806FDE15C905C92000E08
:1036E800F86E00016BEF09F0000E451A000E461A3D
:1036F800000E471A800E481A41C001F042C002F07D
:1037080043C003F044C004F045C005F046C006F0CD
:1037180047C007F048C008F057EC0CF001C041F072
:1037280002C042F003C043F004C044F01200056E2A
:1037380005C003F003460346C2500318C30B031821
:10374800C26E530EE82EFED70000C282C2B2AFEF9F
:103758001BF0B1EF1BF0AAEF1BF0C350C4CF03F06E
:10376800046A03C004F0036A0310016E0450026E79
:10377800120094C059F0C9EF1BF093C055F0590ED0
:10378800566E95C057F08DEC12F059C0F6FF080E32
:10379800F76E0800F5500009D8A4D5EF1BF0D7EF55
:1037A8001BF0C1EF1BF0000E0001946F000E936F29
:1037B8001200000E0E6E000E0D6EECEF1BF00CC02A
:1037C80001F0026A0BC003F03AEC19F00D4A0E2A18
:1037D8000D500924D96E0E500A20DA6EDF500C6E97
:1037E8000C50D8A4FAEF1BF0FCEF1BF0E3EF1BF032
:1037F8001200026E84808492040E016E3E0EE82E42
:10380800FED7012EFCD702C083FF8482070E016E0B
:103818007D0EE82EFED7012EFCD700008492070EFD
:10382800016E7D0EE82EFED7012EFCD70000120097
:1038380001C005F002C006F0032A0304046E04C0A8
:10384800F6FF080EF76E05C0D9FF06C0DAFF054A75
:10385800062A0800F5CFDFFFDF50D8A436EF1CF0AA
:1038680038EF1CF020EF1CF01200980E00019C6F3E
:1038780096C09DF0000EA06F000E9F6F000EA76F00
:10388800000EA66F9D0E936F97C094F09C0E956FD7
:10389800BDEC1BF0000196519F25D96EDA6ADF6AEC
:1038A80012000150021003100410D8B45EEF1CF08F
:1038B80060EF1CF068EF1CF0000E011A000E021AEF
:1038C800000E031A800E041A01C001F002C002F0B3
:1038D80003C003F004C004F0120008BE76EF1CF029
:1038E80078EF1CF07EEF1CF007C007F008C008F066
:1038F8008AEF1CF007C009F008C00AF0091E0A1E6A
:10390800094A0A2A09C007F00AC008F01200026E24
:10391800849002C083FF8482040E016E3E0EE82E5E
:10392800FED7012EFCD78492070E016E7D0EE82E7D
:10393800FED7012EFCD7000012000600F2A2A7EF66
:103948001CF0A9EF1CF0ADEF1CF0F2920001CF6B58
:10395800CE6B5C921100010EC26E0E0EC16EAE0EE1
:0B396800C06E12003838380C06010059
:0239740012003F
:020000040030CA
:08000000000C191EFF8181FFB5
:00000001FF
