:04000000FEEF3FF0E0
:10080000003838380C060180C090D04F6C61000071
:100810000F0EC16E836AF80E8416956AF80E96164E
:10082000046A0450010F036E03C0F6FF0800F55080
:1008300079EC04F0070E036E7D0EE82EFED7032E32
:10084000FCD70000042A050E046429EF04F02BEF06
:1008500004F011EF04F01200076E0750D8B433EF24
:1008600004F035EF04F04DEF04F0050E07603BEFA8
:1008700004F03DEF04F04DEF04F007C004F0FF0E6C
:1008800004260450070F056E05C0F6FF0800F5505A
:100890000324066E060479EC04F0120057EF04F00E
:1008A00003C0F6FF0800F55064EC04F0032A03C00F
:1008B000F6FF0800F5500009D8A461EF04F063EFDB
:1008C00004F050EF04F01200026E848002C083FF37
:1008D0008482030E016E980EE82EFED7012EFCD7FF
:1008E0008492030E016E980EE82EFED7012EFCD7DF
:1008F0001200026E849002C083FF8482030E016E98
:10090000980EE82EFED7012EFCD78492030E016EBE
:10091000980EE82EFED7012EFCD71200A6EC04F0AC
:1009200008EC04F0020E036E010E2CEC04F00B0E2A
:10093000036E4EEC04F09BEF04F0FEEF3FF0000E70
:10094000F86E080EF76E00018EEF04F0956A966A55
:06095000836A846A1200B4
:047FFC009FEF04F0FF
:020000040030CA
:08000000000C060EFF8180FFD9
:00000001FF
